{
	"data": {
		"bytecode": {
			"linkReferences": {},
			"object": "60806040523480156200001157600080fd5b5060405162001456380380620014568339818101604052810190620000379190620000ba565b8160058190555080426200004c919062000101565b600481905550606460038190555033600160006101000a81548173ffffffffffffffffffffffffffffffffffffffff021916908373ffffffffffffffffffffffffffffffffffffffff1602179055505050620001b6565b600081519050620000b4816200019c565b92915050565b60008060408385031215620000d457620000d362000197565b5b6000620000e485828601620000a3565b9250506020620000f785828601620000a3565b9150509250929050565b60006200010e826200015e565b91506200011b836200015e565b9250827fffffffffffffffffffffffffffffffffffffffffffffffffffffffffffffffff0382111562000153576200015262000168565b5b828201905092915050565b6000819050919050565b7f4e487b7100000000000000000000000000000000000000000000000000000000600052601160045260246000fd5b600080fd5b620001a7816200015e565b8114620001b357600080fd5b50565b61129080620001c66000396000f3fe6080604052600436106100e15760003560e01c8063937e09b11161007f578063b2d5ae4411610059578063b2d5ae44146102c7578063c59ee1dc146102de578063d7bb99ba14610309578063f851a44014610313576100f0565b8063937e09b1146102485780639fb42b1f14610273578063a8ce452b1461029e576100f0565b806334b66460116100bb57806334b664601461017457806340193883146101b15780634e260f6f146101dc57806381d12c5814610207576100f0565b806312065fe0146100f55780631b16bb5c1461012057806329dcb0cf14610149576100f0565b366100f0576100ee61033e565b005b600080fd5b34801561010157600080fd5b5061010a610497565b6040516101179190610e6b565b60405180910390f35b34801561012c57600080fd5b5061014760048036038101906101429190610b96565b61049f565b005b34801561015557600080fd5b5061015e6105f2565b60405161016b9190610e6b565b60405180910390f35b34801561018057600080fd5b5061019b60048036038101906101969190610b69565b6105f8565b6040516101a89190610e6b565b60405180910390f35b3480156101bd57600080fd5b506101c6610610565b6040516101d39190610e6b565b60405180910390f35b3480156101e857600080fd5b506101f1610616565b6040516101fe9190610e6b565b60405180910390f35b34801561021357600080fd5b5061022e60048036038101906102299190610c05565b61061c565b60405161023f959493929190610d71565b60405180910390f35b34801561025457600080fd5b5061025d610707565b60405161026a9190610e6b565b60405180910390f35b34801561027f57600080fd5b5061028861070d565b6040516102959190610e6b565b60405180910390f35b3480156102aa57600080fd5b506102c560048036038101906102c09190610c05565b610713565b005b3480156102d357600080fd5b506102dc6108b8565b005b3480156102ea57600080fd5b506102f36109eb565b6040516103009190610e6b565b60405180910390f35b61031161033e565b005b34801561031f57600080fd5b506103286109f1565b6040516103359190610d56565b60405180910390f35b6004544210610382576040517f08c379a000000000000000000000000000000000000000000000000000000000815260040161037990610e2b565b60405180910390fd5b6003543410156103c7576040517f08c379a00000000000000000000000000000000000000000000000000000000081526004016103be90610e4b565b60405180910390fd5b60008060003373ffffffffffffffffffffffffffffffffffffffff1673ffffffffffffffffffffffffffffffffffffffff16815260200190815260200160002054141561042757600260008154809291906104219061104d565b91905055505b346000803373ffffffffffffffffffffffffffffffffffffffff1673ffffffffffffffffffffffffffffffffffffffff16815260200190815260200160002060008282546104759190610ef8565b92505081905550346006600082825461048e9190610ef8565b92505081905550565b600047905090565b600160009054906101000a900473ffffffffffffffffffffffffffffffffffffffff1673ffffffffffffffffffffffffffffffffffffffff163373ffffffffffffffffffffffffffffffffffffffff161461052f576040517f08c379a000000000000000000000000000000000000000000000000000000000815260040161052690610e0b565b60405180910390fd5b600060076000600854815260200190815260200160002090506008600081548092919061055b9061104d565b919050555083816000019080519060200190610578929190610a17565b50828160010160006101000a81548173ffffffffffffffffffffffffffffffffffffffff021916908373ffffffffffffffffffffffffffffffffffffffff16021790555081816002018190555060008160030160006101000a81548160ff0219169083151502179055506000816004018190555050505050565b60045481565b60006020528060005260406000206000915090505481565b60055481565b60025481565b600760205280600052604060002060009150905080600001805461063f90610fea565b80601f016020809104026020016040519081016040528092919081815260200182805461066b90610fea565b80156106b85780601f1061068d576101008083540402835291602001916106b8565b820191906000526020600020905b81548152906001019060200180831161069b57829003601f168201915b5050505050908060010160009054906101000a900473ffffffffffffffffffffffffffffffffffffffff16908060020154908060030160009054906101000a900460ff16908060040154905085565b60035481565b60085481565b60008060003373ffffffffffffffffffffffffffffffffffffffff1673ffffffffffffffffffffffffffffffffffffffff1681526020019081526020016000205411610794576040517f08c379a000000000000000000000000000000000000000000000000000000000815260040161078b90610dcb565b60405180910390fd5b6000600760008381526020019081526020016000209050600015158160050160003373ffffffffffffffffffffffffffffffffffffffff1673ffffffffffffffffffffffffffffffffffffffff16815260200190815260200160002060009054906101000a900460ff16151514610840576040517f08c379a000000000000000000000000000000000000000000000000000000000815260040161083790610deb565b60405180910390fd5b60018160050160003373ffffffffffffffffffffffffffffffffffffffff1673ffffffffffffffffffffffffffffffffffffffff16815260200190815260200160002060006101000a81548160ff0219169083151502179055508060040160008154809291906108af9061104d565b91905055505050565b600454421180156108cc5750600554600654105b6108d557600080fd5b60008060003373ffffffffffffffffffffffffffffffffffffffff1673ffffffffffffffffffffffffffffffffffffffff168152602001908152602001600020541161092057600080fd5b3373ffffffffffffffffffffffffffffffffffffffff166108fc6000803373ffffffffffffffffffffffffffffffffffffffff1673ffffffffffffffffffffffffffffffffffffffff168152602001908152602001600020549081150290604051600060405180830381858888f193505050501580156109a4573d6000803e3d6000fd5b5060008060003373ffffffffffffffffffffffffffffffffffffffff1673ffffffffffffffffffffffffffffffffffffffff16815260200190815260200160002081905550565b60065481565b600160009054906101000a900473ffffffffffffffffffffffffffffffffffffffff1681565b828054610a2390610fea565b90600052602060002090601f016020900481019282610a455760008555610a8c565b82601f10610a5e57805160ff1916838001178555610a8c565b82800160010185558215610a8c579182015b82811115610a8b578251825591602001919060010190610a70565b5b509050610a999190610a9d565b5090565b5b80821115610ab6576000816000905550600101610a9e565b5090565b6000610acd610ac884610eab565b610e86565b905082815260208101848484011115610ae957610ae8611128565b5b610af4848285610fa8565b509392505050565b600081359050610b0b81611215565b92915050565b600081359050610b208161122c565b92915050565b600082601f830112610b3b57610b3a611123565b5b8135610b4b848260208601610aba565b91505092915050565b600081359050610b6381611243565b92915050565b600060208284031215610b7f57610b7e611132565b5b6000610b8d84828501610afc565b91505092915050565b600080600060608486031215610baf57610bae611132565b5b600084013567ffffffffffffffff811115610bcd57610bcc61112d565b5b610bd986828701610b26565b9350506020610bea86828701610b11565b9250506040610bfb86828701610b54565b9150509250925092565b600060208284031215610c1b57610c1a611132565b5b6000610c2984828501610b54565b91505092915050565b610c3b81610f60565b82525050565b610c4a81610f4e565b82525050565b610c5981610f72565b82525050565b6000610c6a82610edc565b610c748185610ee7565b9350610c84818560208601610fb7565b610c8d81611137565b840191505092915050565b6000610ca5601883610ee7565b9150610cb082611148565b602082019050919050565b6000610cc8601683610ee7565b9150610cd382611171565b602082019050919050565b6000610ceb601983610ee7565b9150610cf68261119a565b602082019050919050565b6000610d0e601383610ee7565b9150610d19826111c3565b602082019050919050565b6000610d31601c83610ee7565b9150610d3c826111ec565b602082019050919050565b610d5081610f9e565b82525050565b6000602082019050610d6b6000830184610c41565b92915050565b600060a0820190508181036000830152610d8b8188610c5f565b9050610d9a6020830187610c32565b610da76040830186610d47565b610db46060830185610c50565b610dc16080830184610d47565b9695505050505050565b60006020820190508181036000830152610de481610c98565b9050919050565b60006020820190508181036000830152610e0481610cbb565b9050919050565b60006020820190508181036000830152610e2481610cde565b9050919050565b60006020820190508181036000830152610e4481610d01565b9050919050565b60006020820190508181036000830152610e6481610d24565b9050919050565b6000602082019050610e806000830184610d47565b92915050565b6000610e90610ea1565b9050610e9c828261101c565b919050565b6000604051905090565b600067ffffffffffffffff821115610ec657610ec56110f4565b5b610ecf82611137565b9050602081019050919050565b600081519050919050565b600082825260208201905092915050565b6000610f0382610f9e565b9150610f0e83610f9e565b9250827fffffffffffffffffffffffffffffffffffffffffffffffffffffffffffffffff03821115610f4357610f42611096565b5b828201905092915050565b6000610f5982610f7e565b9050919050565b6000610f6b82610f7e565b9050919050565b60008115159050919050565b600073ffffffffffffffffffffffffffffffffffffffff82169050919050565b6000819050919050565b82818337600083830152505050565b60005b83811015610fd5578082015181840152602081019050610fba565b83811115610fe4576000848401525b50505050565b6000600282049050600182168061100257607f821691505b60208210811415611016576110156110c5565b5b50919050565b61102582611137565b810181811067ffffffffffffffff82111715611044576110436110f4565b5b80604052505050565b600061105882610f9e565b91507fffffffffffffffffffffffffffffffffffffffffffffffffffffffffffffffff82141561108b5761108a611096565b5b600182019050919050565b7f4e487b7100000000000000000000000000000000000000000000000000000000600052601160045260246000fd5b7f4e487b7100000000000000000000000000000000000000000000000000000000600052602260045260246000fd5b7f4e487b7100000000000000000000000000000000000000000000000000000000600052604160045260246000fd5b600080fd5b600080fd5b600080fd5b600080fd5b6000601f19601f8301169050919050565b7f6f6e7920636f6e74696275746572732063616e20766f74650000000000000000600082015250565b7f796f75206861766520616c726561647920766f74656400000000000000000000600082015250565b7f206f6e6c792061646d696e2063616e2063616c6c207468697300000000000000600082015250565b7f646561646c696e65206861732070617373656400000000000000000000000000600082015250565b7f6d696e696d756d20636f6e747269627574696f6e206e6f74206d657400000000600082015250565b61121e81610f4e565b811461122957600080fd5b50565b61123581610f60565b811461124057600080fd5b50565b61124c81610f9e565b811461125757600080fd5b5056fea2646970667358221220394ced6c6a2e1410c0ac3808744e5291eb14497f5e8277d0a20da1e301ec41b364736f6c63430008070033",
			"opcodes": "PUSH1 0x80 PUSH1 0x40 MSTORE CALLVALUE DUP1 ISZERO PUSH3 0x11 JUMPI PUSH1 0x0 DUP1 REVERT JUMPDEST POP PUSH1 0x40 MLOAD PUSH3 0x1456 CODESIZE SUB DUP1 PUSH3 0x1456 DUP4 CODECOPY DUP2 DUP2 ADD PUSH1 0x40 MSTORE DUP2 ADD SWAP1 PUSH3 0x37 SWAP2 SWAP1 PUSH3 0xBA JUMP JUMPDEST DUP2 PUSH1 0x5 DUP2 SWAP1 SSTORE POP DUP1 TIMESTAMP PUSH3 0x4C SWAP2 SWAP1 PUSH3 0x101 JUMP JUMPDEST PUSH1 0x4 DUP2 SWAP1 SSTORE POP PUSH1 0x64 PUSH1 0x3 DUP2 SWAP1 SSTORE POP CALLER PUSH1 0x1 PUSH1 0x0 PUSH2 0x100 EXP DUP2 SLOAD DUP2 PUSH20 0xFFFFFFFFFFFFFFFFFFFFFFFFFFFFFFFFFFFFFFFF MUL NOT AND SWAP1 DUP4 PUSH20 0xFFFFFFFFFFFFFFFFFFFFFFFFFFFFFFFFFFFFFFFF AND MUL OR SWAP1 SSTORE POP POP POP PUSH3 0x1B6 JUMP JUMPDEST PUSH1 0x0 DUP2 MLOAD SWAP1 POP PUSH3 0xB4 DUP2 PUSH3 0x19C JUMP JUMPDEST SWAP3 SWAP2 POP POP JUMP JUMPDEST PUSH1 0x0 DUP1 PUSH1 0x40 DUP4 DUP6 SUB SLT ISZERO PUSH3 0xD4 JUMPI PUSH3 0xD3 PUSH3 0x197 JUMP JUMPDEST JUMPDEST PUSH1 0x0 PUSH3 0xE4 DUP6 DUP3 DUP7 ADD PUSH3 0xA3 JUMP JUMPDEST SWAP3 POP POP PUSH1 0x20 PUSH3 0xF7 DUP6 DUP3 DUP7 ADD PUSH3 0xA3 JUMP JUMPDEST SWAP2 POP POP SWAP3 POP SWAP3 SWAP1 POP JUMP JUMPDEST PUSH1 0x0 PUSH3 0x10E DUP3 PUSH3 0x15E JUMP JUMPDEST SWAP2 POP PUSH3 0x11B DUP4 PUSH3 0x15E JUMP JUMPDEST SWAP3 POP DUP3 PUSH32 0xFFFFFFFFFFFFFFFFFFFFFFFFFFFFFFFFFFFFFFFFFFFFFFFFFFFFFFFFFFFFFFFF SUB DUP3 GT ISZERO PUSH3 0x153 JUMPI PUSH3 0x152 PUSH3 0x168 JUMP JUMPDEST JUMPDEST DUP3 DUP3 ADD SWAP1 POP SWAP3 SWAP2 POP POP JUMP JUMPDEST PUSH1 0x0 DUP2 SWAP1 POP SWAP2 SWAP1 POP JUMP JUMPDEST PUSH32 0x4E487B7100000000000000000000000000000000000000000000000000000000 PUSH1 0x0 MSTORE PUSH1 0x11 PUSH1 0x4 MSTORE PUSH1 0x24 PUSH1 0x0 REVERT JUMPDEST PUSH1 0x0 DUP1 REVERT JUMPDEST PUSH3 0x1A7 DUP2 PUSH3 0x15E JUMP JUMPDEST DUP2 EQ PUSH3 0x1B3 JUMPI PUSH1 0x0 DUP1 REVERT JUMPDEST POP JUMP JUMPDEST PUSH2 0x1290 DUP1 PUSH3 0x1C6 PUSH1 0x0 CODECOPY PUSH1 0x0 RETURN INVALID PUSH1 0x80 PUSH1 0x40 MSTORE PUSH1 0x4 CALLDATASIZE LT PUSH2 0xE1 JUMPI PUSH1 0x0 CALLDATALOAD PUSH1 0xE0 SHR DUP1 PUSH4 0x937E09B1 GT PUSH2 0x7F JUMPI DUP1 PUSH4 0xB2D5AE44 GT PUSH2 0x59 JUMPI DUP1 PUSH4 0xB2D5AE44 EQ PUSH2 0x2C7 JUMPI DUP1 PUSH4 0xC59EE1DC EQ PUSH2 0x2DE JUMPI DUP1 PUSH4 0xD7BB99BA EQ PUSH2 0x309 JUMPI DUP1 PUSH4 0xF851A440 EQ PUSH2 0x313 JUMPI PUSH2 0xF0 JUMP JUMPDEST DUP1 PUSH4 0x937E09B1 EQ PUSH2 0x248 JUMPI DUP1 PUSH4 0x9FB42B1F EQ PUSH2 0x273 JUMPI DUP1 PUSH4 0xA8CE452B EQ PUSH2 0x29E JUMPI PUSH2 0xF0 JUMP JUMPDEST DUP1 PUSH4 0x34B66460 GT PUSH2 0xBB JUMPI DUP1 PUSH4 0x34B66460 EQ PUSH2 0x174 JUMPI DUP1 PUSH4 0x40193883 EQ PUSH2 0x1B1 JUMPI DUP1 PUSH4 0x4E260F6F EQ PUSH2 0x1DC JUMPI DUP1 PUSH4 0x81D12C58 EQ PUSH2 0x207 JUMPI PUSH2 0xF0 JUMP JUMPDEST DUP1 PUSH4 0x12065FE0 EQ PUSH2 0xF5 JUMPI DUP1 PUSH4 0x1B16BB5C EQ PUSH2 0x120 JUMPI DUP1 PUSH4 0x29DCB0CF EQ PUSH2 0x149 JUMPI PUSH2 0xF0 JUMP JUMPDEST CALLDATASIZE PUSH2 0xF0 JUMPI PUSH2 0xEE PUSH2 0x33E JUMP JUMPDEST STOP JUMPDEST PUSH1 0x0 DUP1 REVERT JUMPDEST CALLVALUE DUP1 ISZERO PUSH2 0x101 JUMPI PUSH1 0x0 DUP1 REVERT JUMPDEST POP PUSH2 0x10A PUSH2 0x497 JUMP JUMPDEST PUSH1 0x40 MLOAD PUSH2 0x117 SWAP2 SWAP1 PUSH2 0xE6B JUMP JUMPDEST PUSH1 0x40 MLOAD DUP1 SWAP2 SUB SWAP1 RETURN JUMPDEST CALLVALUE DUP1 ISZERO PUSH2 0x12C JUMPI PUSH1 0x0 DUP1 REVERT JUMPDEST POP PUSH2 0x147 PUSH1 0x4 DUP1 CALLDATASIZE SUB DUP2 ADD SWAP1 PUSH2 0x142 SWAP2 SWAP1 PUSH2 0xB96 JUMP JUMPDEST PUSH2 0x49F JUMP JUMPDEST STOP JUMPDEST CALLVALUE DUP1 ISZERO PUSH2 0x155 JUMPI PUSH1 0x0 DUP1 REVERT JUMPDEST POP PUSH2 0x15E PUSH2 0x5F2 JUMP JUMPDEST PUSH1 0x40 MLOAD PUSH2 0x16B SWAP2 SWAP1 PUSH2 0xE6B JUMP JUMPDEST PUSH1 0x40 MLOAD DUP1 SWAP2 SUB SWAP1 RETURN JUMPDEST CALLVALUE DUP1 ISZERO PUSH2 0x180 JUMPI PUSH1 0x0 DUP1 REVERT JUMPDEST POP PUSH2 0x19B PUSH1 0x4 DUP1 CALLDATASIZE SUB DUP2 ADD SWAP1 PUSH2 0x196 SWAP2 SWAP1 PUSH2 0xB69 JUMP JUMPDEST PUSH2 0x5F8 JUMP JUMPDEST PUSH1 0x40 MLOAD PUSH2 0x1A8 SWAP2 SWAP1 PUSH2 0xE6B JUMP JUMPDEST PUSH1 0x40 MLOAD DUP1 SWAP2 SUB SWAP1 RETURN JUMPDEST CALLVALUE DUP1 ISZERO PUSH2 0x1BD JUMPI PUSH1 0x0 DUP1 REVERT JUMPDEST POP PUSH2 0x1C6 PUSH2 0x610 JUMP JUMPDEST PUSH1 0x40 MLOAD PUSH2 0x1D3 SWAP2 SWAP1 PUSH2 0xE6B JUMP JUMPDEST PUSH1 0x40 MLOAD DUP1 SWAP2 SUB SWAP1 RETURN JUMPDEST CALLVALUE DUP1 ISZERO PUSH2 0x1E8 JUMPI PUSH1 0x0 DUP1 REVERT JUMPDEST POP PUSH2 0x1F1 PUSH2 0x616 JUMP JUMPDEST PUSH1 0x40 MLOAD PUSH2 0x1FE SWAP2 SWAP1 PUSH2 0xE6B JUMP JUMPDEST PUSH1 0x40 MLOAD DUP1 SWAP2 SUB SWAP1 RETURN JUMPDEST CALLVALUE DUP1 ISZERO PUSH2 0x213 JUMPI PUSH1 0x0 DUP1 REVERT JUMPDEST POP PUSH2 0x22E PUSH1 0x4 DUP1 CALLDATASIZE SUB DUP2 ADD SWAP1 PUSH2 0x229 SWAP2 SWAP1 PUSH2 0xC05 JUMP JUMPDEST PUSH2 0x61C JUMP JUMPDEST PUSH1 0x40 MLOAD PUSH2 0x23F SWAP6 SWAP5 SWAP4 SWAP3 SWAP2 SWAP1 PUSH2 0xD71 JUMP JUMPDEST PUSH1 0x40 MLOAD DUP1 SWAP2 SUB SWAP1 RETURN JUMPDEST CALLVALUE DUP1 ISZERO PUSH2 0x254 JUMPI PUSH1 0x0 DUP1 REVERT JUMPDEST POP PUSH2 0x25D PUSH2 0x707 JUMP JUMPDEST PUSH1 0x40 MLOAD PUSH2 0x26A SWAP2 SWAP1 PUSH2 0xE6B JUMP JUMPDEST PUSH1 0x40 MLOAD DUP1 SWAP2 SUB SWAP1 RETURN JUMPDEST CALLVALUE DUP1 ISZERO PUSH2 0x27F JUMPI PUSH1 0x0 DUP1 REVERT JUMPDEST POP PUSH2 0x288 PUSH2 0x70D JUMP JUMPDEST PUSH1 0x40 MLOAD PUSH2 0x295 SWAP2 SWAP1 PUSH2 0xE6B JUMP JUMPDEST PUSH1 0x40 MLOAD DUP1 SWAP2 SUB SWAP1 RETURN JUMPDEST CALLVALUE DUP1 ISZERO PUSH2 0x2AA JUMPI PUSH1 0x0 DUP1 REVERT JUMPDEST POP PUSH2 0x2C5 PUSH1 0x4 DUP1 CALLDATASIZE SUB DUP2 ADD SWAP1 PUSH2 0x2C0 SWAP2 SWAP1 PUSH2 0xC05 JUMP JUMPDEST PUSH2 0x713 JUMP JUMPDEST STOP JUMPDEST CALLVALUE DUP1 ISZERO PUSH2 0x2D3 JUMPI PUSH1 0x0 DUP1 REVERT JUMPDEST POP PUSH2 0x2DC PUSH2 0x8B8 JUMP JUMPDEST STOP JUMPDEST CALLVALUE DUP1 ISZERO PUSH2 0x2EA JUMPI PUSH1 0x0 DUP1 REVERT JUMPDEST POP PUSH2 0x2F3 PUSH2 0x9EB JUMP JUMPDEST PUSH1 0x40 MLOAD PUSH2 0x300 SWAP2 SWAP1 PUSH2 0xE6B JUMP JUMPDEST PUSH1 0x40 MLOAD DUP1 SWAP2 SUB SWAP1 RETURN JUMPDEST PUSH2 0x311 PUSH2 0x33E JUMP JUMPDEST STOP JUMPDEST CALLVALUE DUP1 ISZERO PUSH2 0x31F JUMPI PUSH1 0x0 DUP1 REVERT JUMPDEST POP PUSH2 0x328 PUSH2 0x9F1 JUMP JUMPDEST PUSH1 0x40 MLOAD PUSH2 0x335 SWAP2 SWAP1 PUSH2 0xD56 JUMP JUMPDEST PUSH1 0x40 MLOAD DUP1 SWAP2 SUB SWAP1 RETURN JUMPDEST PUSH1 0x4 SLOAD TIMESTAMP LT PUSH2 0x382 JUMPI PUSH1 0x40 MLOAD PUSH32 0x8C379A000000000000000000000000000000000000000000000000000000000 DUP2 MSTORE PUSH1 0x4 ADD PUSH2 0x379 SWAP1 PUSH2 0xE2B JUMP JUMPDEST PUSH1 0x40 MLOAD DUP1 SWAP2 SUB SWAP1 REVERT JUMPDEST PUSH1 0x3 SLOAD CALLVALUE LT ISZERO PUSH2 0x3C7 JUMPI PUSH1 0x40 MLOAD PUSH32 0x8C379A000000000000000000000000000000000000000000000000000000000 DUP2 MSTORE PUSH1 0x4 ADD PUSH2 0x3BE SWAP1 PUSH2 0xE4B JUMP JUMPDEST PUSH1 0x40 MLOAD DUP1 SWAP2 SUB SWAP1 REVERT JUMPDEST PUSH1 0x0 DUP1 PUSH1 0x0 CALLER PUSH20 0xFFFFFFFFFFFFFFFFFFFFFFFFFFFFFFFFFFFFFFFF AND PUSH20 0xFFFFFFFFFFFFFFFFFFFFFFFFFFFFFFFFFFFFFFFF AND DUP2 MSTORE PUSH1 0x20 ADD SWAP1 DUP2 MSTORE PUSH1 0x20 ADD PUSH1 0x0 KECCAK256 SLOAD EQ ISZERO PUSH2 0x427 JUMPI PUSH1 0x2 PUSH1 0x0 DUP2 SLOAD DUP1 SWAP3 SWAP2 SWAP1 PUSH2 0x421 SWAP1 PUSH2 0x104D JUMP JUMPDEST SWAP2 SWAP1 POP SSTORE POP JUMPDEST CALLVALUE PUSH1 0x0 DUP1 CALLER PUSH20 0xFFFFFFFFFFFFFFFFFFFFFFFFFFFFFFFFFFFFFFFF AND PUSH20 0xFFFFFFFFFFFFFFFFFFFFFFFFFFFFFFFFFFFFFFFF AND DUP2 MSTORE PUSH1 0x20 ADD SWAP1 DUP2 MSTORE PUSH1 0x20 ADD PUSH1 0x0 KECCAK256 PUSH1 0x0 DUP3 DUP3 SLOAD PUSH2 0x475 SWAP2 SWAP1 PUSH2 0xEF8 JUMP JUMPDEST SWAP3 POP POP DUP2 SWAP1 SSTORE POP CALLVALUE PUSH1 0x6 PUSH1 0x0 DUP3 DUP3 SLOAD PUSH2 0x48E SWAP2 SWAP1 PUSH2 0xEF8 JUMP JUMPDEST SWAP3 POP POP DUP2 SWAP1 SSTORE POP JUMP JUMPDEST PUSH1 0x0 SELFBALANCE SWAP1 POP SWAP1 JUMP JUMPDEST PUSH1 0x1 PUSH1 0x0 SWAP1 SLOAD SWAP1 PUSH2 0x100 EXP SWAP1 DIV PUSH20 0xFFFFFFFFFFFFFFFFFFFFFFFFFFFFFFFFFFFFFFFF AND PUSH20 0xFFFFFFFFFFFFFFFFFFFFFFFFFFFFFFFFFFFFFFFF AND CALLER PUSH20 0xFFFFFFFFFFFFFFFFFFFFFFFFFFFFFFFFFFFFFFFF AND EQ PUSH2 0x52F JUMPI PUSH1 0x40 MLOAD PUSH32 0x8C379A000000000000000000000000000000000000000000000000000000000 DUP2 MSTORE PUSH1 0x4 ADD PUSH2 0x526 SWAP1 PUSH2 0xE0B JUMP JUMPDEST PUSH1 0x40 MLOAD DUP1 SWAP2 SUB SWAP1 REVERT JUMPDEST PUSH1 0x0 PUSH1 0x7 PUSH1 0x0 PUSH1 0x8 SLOAD DUP2 MSTORE PUSH1 0x20 ADD SWAP1 DUP2 MSTORE PUSH1 0x20 ADD PUSH1 0x0 KECCAK256 SWAP1 POP PUSH1 0x8 PUSH1 0x0 DUP2 SLOAD DUP1 SWAP3 SWAP2 SWAP1 PUSH2 0x55B SWAP1 PUSH2 0x104D JUMP JUMPDEST SWAP2 SWAP1 POP SSTORE POP DUP4 DUP2 PUSH1 0x0 ADD SWAP1 DUP1 MLOAD SWAP1 PUSH1 0x20 ADD SWAP1 PUSH2 0x578 SWAP3 SWAP2 SWAP1 PUSH2 0xA17 JUMP JUMPDEST POP DUP3 DUP2 PUSH1 0x1 ADD PUSH1 0x0 PUSH2 0x100 EXP DUP2 SLOAD DUP2 PUSH20 0xFFFFFFFFFFFFFFFFFFFFFFFFFFFFFFFFFFFFFFFF MUL NOT AND SWAP1 DUP4 PUSH20 0xFFFFFFFFFFFFFFFFFFFFFFFFFFFFFFFFFFFFFFFF AND MUL OR SWAP1 SSTORE POP DUP2 DUP2 PUSH1 0x2 ADD DUP2 SWAP1 SSTORE POP PUSH1 0x0 DUP2 PUSH1 0x3 ADD PUSH1 0x0 PUSH2 0x100 EXP DUP2 SLOAD DUP2 PUSH1 0xFF MUL NOT AND SWAP1 DUP4 ISZERO ISZERO MUL OR SWAP1 SSTORE POP PUSH1 0x0 DUP2 PUSH1 0x4 ADD DUP2 SWAP1 SSTORE POP POP POP POP POP JUMP JUMPDEST PUSH1 0x4 SLOAD DUP2 JUMP JUMPDEST PUSH1 0x0 PUSH1 0x20 MSTORE DUP1 PUSH1 0x0 MSTORE PUSH1 0x40 PUSH1 0x0 KECCAK256 PUSH1 0x0 SWAP2 POP SWAP1 POP SLOAD DUP2 JUMP JUMPDEST PUSH1 0x5 SLOAD DUP2 JUMP JUMPDEST PUSH1 0x2 SLOAD DUP2 JUMP JUMPDEST PUSH1 0x7 PUSH1 0x20 MSTORE DUP1 PUSH1 0x0 MSTORE PUSH1 0x40 PUSH1 0x0 KECCAK256 PUSH1 0x0 SWAP2 POP SWAP1 POP DUP1 PUSH1 0x0 ADD DUP1 SLOAD PUSH2 0x63F SWAP1 PUSH2 0xFEA JUMP JUMPDEST DUP1 PUSH1 0x1F ADD PUSH1 0x20 DUP1 SWAP2 DIV MUL PUSH1 0x20 ADD PUSH1 0x40 MLOAD SWAP1 DUP2 ADD PUSH1 0x40 MSTORE DUP1 SWAP3 SWAP2 SWAP1 DUP2 DUP2 MSTORE PUSH1 0x20 ADD DUP3 DUP1 SLOAD PUSH2 0x66B SWAP1 PUSH2 0xFEA JUMP JUMPDEST DUP1 ISZERO PUSH2 0x6B8 JUMPI DUP1 PUSH1 0x1F LT PUSH2 0x68D JUMPI PUSH2 0x100 DUP1 DUP4 SLOAD DIV MUL DUP4 MSTORE SWAP2 PUSH1 0x20 ADD SWAP2 PUSH2 0x6B8 JUMP JUMPDEST DUP3 ADD SWAP2 SWAP1 PUSH1 0x0 MSTORE PUSH1 0x20 PUSH1 0x0 KECCAK256 SWAP1 JUMPDEST DUP2 SLOAD DUP2 MSTORE SWAP1 PUSH1 0x1 ADD SWAP1 PUSH1 0x20 ADD DUP1 DUP4 GT PUSH2 0x69B JUMPI DUP3 SWAP1 SUB PUSH1 0x1F AND DUP3 ADD SWAP2 JUMPDEST POP POP POP POP POP SWAP1 DUP1 PUSH1 0x1 ADD PUSH1 0x0 SWAP1 SLOAD SWAP1 PUSH2 0x100 EXP SWAP1 DIV PUSH20 0xFFFFFFFFFFFFFFFFFFFFFFFFFFFFFFFFFFFFFFFF AND SWAP1 DUP1 PUSH1 0x2 ADD SLOAD SWAP1 DUP1 PUSH1 0x3 ADD PUSH1 0x0 SWAP1 SLOAD SWAP1 PUSH2 0x100 EXP SWAP1 DIV PUSH1 0xFF AND SWAP1 DUP1 PUSH1 0x4 ADD SLOAD SWAP1 POP DUP6 JUMP JUMPDEST PUSH1 0x3 SLOAD DUP2 JUMP JUMPDEST PUSH1 0x8 SLOAD DUP2 JUMP JUMPDEST PUSH1 0x0 DUP1 PUSH1 0x0 CALLER PUSH20 0xFFFFFFFFFFFFFFFFFFFFFFFFFFFFFFFFFFFFFFFF AND PUSH20 0xFFFFFFFFFFFFFFFFFFFFFFFFFFFFFFFFFFFFFFFF AND DUP2 MSTORE PUSH1 0x20 ADD SWAP1 DUP2 MSTORE PUSH1 0x20 ADD PUSH1 0x0 KECCAK256 SLOAD GT PUSH2 0x794 JUMPI PUSH1 0x40 MLOAD PUSH32 0x8C379A000000000000000000000000000000000000000000000000000000000 DUP2 MSTORE PUSH1 0x4 ADD PUSH2 0x78B SWAP1 PUSH2 0xDCB JUMP JUMPDEST PUSH1 0x40 MLOAD DUP1 SWAP2 SUB SWAP1 REVERT JUMPDEST PUSH1 0x0 PUSH1 0x7 PUSH1 0x0 DUP4 DUP2 MSTORE PUSH1 0x20 ADD SWAP1 DUP2 MSTORE PUSH1 0x20 ADD PUSH1 0x0 KECCAK256 SWAP1 POP PUSH1 0x0 ISZERO ISZERO DUP2 PUSH1 0x5 ADD PUSH1 0x0 CALLER PUSH20 0xFFFFFFFFFFFFFFFFFFFFFFFFFFFFFFFFFFFFFFFF AND PUSH20 0xFFFFFFFFFFFFFFFFFFFFFFFFFFFFFFFFFFFFFFFF AND DUP2 MSTORE PUSH1 0x20 ADD SWAP1 DUP2 MSTORE PUSH1 0x20 ADD PUSH1 0x0 KECCAK256 PUSH1 0x0 SWAP1 SLOAD SWAP1 PUSH2 0x100 EXP SWAP1 DIV PUSH1 0xFF AND ISZERO ISZERO EQ PUSH2 0x840 JUMPI PUSH1 0x40 MLOAD PUSH32 0x8C379A000000000000000000000000000000000000000000000000000000000 DUP2 MSTORE PUSH1 0x4 ADD PUSH2 0x837 SWAP1 PUSH2 0xDEB JUMP JUMPDEST PUSH1 0x40 MLOAD DUP1 SWAP2 SUB SWAP1 REVERT JUMPDEST PUSH1 0x1 DUP2 PUSH1 0x5 ADD PUSH1 0x0 CALLER PUSH20 0xFFFFFFFFFFFFFFFFFFFFFFFFFFFFFFFFFFFFFFFF AND PUSH20 0xFFFFFFFFFFFFFFFFFFFFFFFFFFFFFFFFFFFFFFFF AND DUP2 MSTORE PUSH1 0x20 ADD SWAP1 DUP2 MSTORE PUSH1 0x20 ADD PUSH1 0x0 KECCAK256 PUSH1 0x0 PUSH2 0x100 EXP DUP2 SLOAD DUP2 PUSH1 0xFF MUL NOT AND SWAP1 DUP4 ISZERO ISZERO MUL OR SWAP1 SSTORE POP DUP1 PUSH1 0x4 ADD PUSH1 0x0 DUP2 SLOAD DUP1 SWAP3 SWAP2 SWAP1 PUSH2 0x8AF SWAP1 PUSH2 0x104D JUMP JUMPDEST SWAP2 SWAP1 POP SSTORE POP POP POP JUMP JUMPDEST PUSH1 0x4 SLOAD TIMESTAMP GT DUP1 ISZERO PUSH2 0x8CC JUMPI POP PUSH1 0x5 SLOAD PUSH1 0x6 SLOAD LT JUMPDEST PUSH2 0x8D5 JUMPI PUSH1 0x0 DUP1 REVERT JUMPDEST PUSH1 0x0 DUP1 PUSH1 0x0 CALLER PUSH20 0xFFFFFFFFFFFFFFFFFFFFFFFFFFFFFFFFFFFFFFFF AND PUSH20 0xFFFFFFFFFFFFFFFFFFFFFFFFFFFFFFFFFFFFFFFF AND DUP2 MSTORE PUSH1 0x20 ADD SWAP1 DUP2 MSTORE PUSH1 0x20 ADD PUSH1 0x0 KECCAK256 SLOAD GT PUSH2 0x920 JUMPI PUSH1 0x0 DUP1 REVERT JUMPDEST CALLER PUSH20 0xFFFFFFFFFFFFFFFFFFFFFFFFFFFFFFFFFFFFFFFF AND PUSH2 0x8FC PUSH1 0x0 DUP1 CALLER PUSH20 0xFFFFFFFFFFFFFFFFFFFFFFFFFFFFFFFFFFFFFFFF AND PUSH20 0xFFFFFFFFFFFFFFFFFFFFFFFFFFFFFFFFFFFFFFFF AND DUP2 MSTORE PUSH1 0x20 ADD SWAP1 DUP2 MSTORE PUSH1 0x20 ADD PUSH1 0x0 KECCAK256 SLOAD SWAP1 DUP2 ISZERO MUL SWAP1 PUSH1 0x40 MLOAD PUSH1 0x0 PUSH1 0x40 MLOAD DUP1 DUP4 SUB DUP2 DUP6 DUP9 DUP9 CALL SWAP4 POP POP POP POP ISZERO DUP1 ISZERO PUSH2 0x9A4 JUMPI RETURNDATASIZE PUSH1 0x0 DUP1 RETURNDATACOPY RETURNDATASIZE PUSH1 0x0 REVERT JUMPDEST POP PUSH1 0x0 DUP1 PUSH1 0x0 CALLER PUSH20 0xFFFFFFFFFFFFFFFFFFFFFFFFFFFFFFFFFFFFFFFF AND PUSH20 0xFFFFFFFFFFFFFFFFFFFFFFFFFFFFFFFFFFFFFFFF AND DUP2 MSTORE PUSH1 0x20 ADD SWAP1 DUP2 MSTORE PUSH1 0x20 ADD PUSH1 0x0 KECCAK256 DUP2 SWAP1 SSTORE POP JUMP JUMPDEST PUSH1 0x6 SLOAD DUP2 JUMP JUMPDEST PUSH1 0x1 PUSH1 0x0 SWAP1 SLOAD SWAP1 PUSH2 0x100 EXP SWAP1 DIV PUSH20 0xFFFFFFFFFFFFFFFFFFFFFFFFFFFFFFFFFFFFFFFF AND DUP2 JUMP JUMPDEST DUP3 DUP1 SLOAD PUSH2 0xA23 SWAP1 PUSH2 0xFEA JUMP JUMPDEST SWAP1 PUSH1 0x0 MSTORE PUSH1 0x20 PUSH1 0x0 KECCAK256 SWAP1 PUSH1 0x1F ADD PUSH1 0x20 SWAP1 DIV DUP2 ADD SWAP3 DUP3 PUSH2 0xA45 JUMPI PUSH1 0x0 DUP6 SSTORE PUSH2 0xA8C JUMP JUMPDEST DUP3 PUSH1 0x1F LT PUSH2 0xA5E JUMPI DUP1 MLOAD PUSH1 0xFF NOT AND DUP4 DUP1 ADD OR DUP6 SSTORE PUSH2 0xA8C JUMP JUMPDEST DUP3 DUP1 ADD PUSH1 0x1 ADD DUP6 SSTORE DUP3 ISZERO PUSH2 0xA8C JUMPI SWAP2 DUP3 ADD JUMPDEST DUP3 DUP2 GT ISZERO PUSH2 0xA8B JUMPI DUP3 MLOAD DUP3 SSTORE SWAP2 PUSH1 0x20 ADD SWAP2 SWAP1 PUSH1 0x1 ADD SWAP1 PUSH2 0xA70 JUMP JUMPDEST JUMPDEST POP SWAP1 POP PUSH2 0xA99 SWAP2 SWAP1 PUSH2 0xA9D JUMP JUMPDEST POP SWAP1 JUMP JUMPDEST JUMPDEST DUP1 DUP3 GT ISZERO PUSH2 0xAB6 JUMPI PUSH1 0x0 DUP2 PUSH1 0x0 SWAP1 SSTORE POP PUSH1 0x1 ADD PUSH2 0xA9E JUMP JUMPDEST POP SWAP1 JUMP JUMPDEST PUSH1 0x0 PUSH2 0xACD PUSH2 0xAC8 DUP5 PUSH2 0xEAB JUMP JUMPDEST PUSH2 0xE86 JUMP JUMPDEST SWAP1 POP DUP3 DUP2 MSTORE PUSH1 0x20 DUP2 ADD DUP5 DUP5 DUP5 ADD GT ISZERO PUSH2 0xAE9 JUMPI PUSH2 0xAE8 PUSH2 0x1128 JUMP JUMPDEST JUMPDEST PUSH2 0xAF4 DUP5 DUP3 DUP6 PUSH2 0xFA8 JUMP JUMPDEST POP SWAP4 SWAP3 POP POP POP JUMP JUMPDEST PUSH1 0x0 DUP2 CALLDATALOAD SWAP1 POP PUSH2 0xB0B DUP2 PUSH2 0x1215 JUMP JUMPDEST SWAP3 SWAP2 POP POP JUMP JUMPDEST PUSH1 0x0 DUP2 CALLDATALOAD SWAP1 POP PUSH2 0xB20 DUP2 PUSH2 0x122C JUMP JUMPDEST SWAP3 SWAP2 POP POP JUMP JUMPDEST PUSH1 0x0 DUP3 PUSH1 0x1F DUP4 ADD SLT PUSH2 0xB3B JUMPI PUSH2 0xB3A PUSH2 0x1123 JUMP JUMPDEST JUMPDEST DUP2 CALLDATALOAD PUSH2 0xB4B DUP5 DUP3 PUSH1 0x20 DUP7 ADD PUSH2 0xABA JUMP JUMPDEST SWAP2 POP POP SWAP3 SWAP2 POP POP JUMP JUMPDEST PUSH1 0x0 DUP2 CALLDATALOAD SWAP1 POP PUSH2 0xB63 DUP2 PUSH2 0x1243 JUMP JUMPDEST SWAP3 SWAP2 POP POP JUMP JUMPDEST PUSH1 0x0 PUSH1 0x20 DUP3 DUP5 SUB SLT ISZERO PUSH2 0xB7F JUMPI PUSH2 0xB7E PUSH2 0x1132 JUMP JUMPDEST JUMPDEST PUSH1 0x0 PUSH2 0xB8D DUP5 DUP3 DUP6 ADD PUSH2 0xAFC JUMP JUMPDEST SWAP2 POP POP SWAP3 SWAP2 POP POP JUMP JUMPDEST PUSH1 0x0 DUP1 PUSH1 0x0 PUSH1 0x60 DUP5 DUP7 SUB SLT ISZERO PUSH2 0xBAF JUMPI PUSH2 0xBAE PUSH2 0x1132 JUMP JUMPDEST JUMPDEST PUSH1 0x0 DUP5 ADD CALLDATALOAD PUSH8 0xFFFFFFFFFFFFFFFF DUP2 GT ISZERO PUSH2 0xBCD JUMPI PUSH2 0xBCC PUSH2 0x112D JUMP JUMPDEST JUMPDEST PUSH2 0xBD9 DUP7 DUP3 DUP8 ADD PUSH2 0xB26 JUMP JUMPDEST SWAP4 POP POP PUSH1 0x20 PUSH2 0xBEA DUP7 DUP3 DUP8 ADD PUSH2 0xB11 JUMP JUMPDEST SWAP3 POP POP PUSH1 0x40 PUSH2 0xBFB DUP7 DUP3 DUP8 ADD PUSH2 0xB54 JUMP JUMPDEST SWAP2 POP POP SWAP3 POP SWAP3 POP SWAP3 JUMP JUMPDEST PUSH1 0x0 PUSH1 0x20 DUP3 DUP5 SUB SLT ISZERO PUSH2 0xC1B JUMPI PUSH2 0xC1A PUSH2 0x1132 JUMP JUMPDEST JUMPDEST PUSH1 0x0 PUSH2 0xC29 DUP5 DUP3 DUP6 ADD PUSH2 0xB54 JUMP JUMPDEST SWAP2 POP POP SWAP3 SWAP2 POP POP JUMP JUMPDEST PUSH2 0xC3B DUP2 PUSH2 0xF60 JUMP JUMPDEST DUP3 MSTORE POP POP JUMP JUMPDEST PUSH2 0xC4A DUP2 PUSH2 0xF4E JUMP JUMPDEST DUP3 MSTORE POP POP JUMP JUMPDEST PUSH2 0xC59 DUP2 PUSH2 0xF72 JUMP JUMPDEST DUP3 MSTORE POP POP JUMP JUMPDEST PUSH1 0x0 PUSH2 0xC6A DUP3 PUSH2 0xEDC JUMP JUMPDEST PUSH2 0xC74 DUP2 DUP6 PUSH2 0xEE7 JUMP JUMPDEST SWAP4 POP PUSH2 0xC84 DUP2 DUP6 PUSH1 0x20 DUP7 ADD PUSH2 0xFB7 JUMP JUMPDEST PUSH2 0xC8D DUP2 PUSH2 0x1137 JUMP JUMPDEST DUP5 ADD SWAP2 POP POP SWAP3 SWAP2 POP POP JUMP JUMPDEST PUSH1 0x0 PUSH2 0xCA5 PUSH1 0x18 DUP4 PUSH2 0xEE7 JUMP JUMPDEST SWAP2 POP PUSH2 0xCB0 DUP3 PUSH2 0x1148 JUMP JUMPDEST PUSH1 0x20 DUP3 ADD SWAP1 POP SWAP2 SWAP1 POP JUMP JUMPDEST PUSH1 0x0 PUSH2 0xCC8 PUSH1 0x16 DUP4 PUSH2 0xEE7 JUMP JUMPDEST SWAP2 POP PUSH2 0xCD3 DUP3 PUSH2 0x1171 JUMP JUMPDEST PUSH1 0x20 DUP3 ADD SWAP1 POP SWAP2 SWAP1 POP JUMP JUMPDEST PUSH1 0x0 PUSH2 0xCEB PUSH1 0x19 DUP4 PUSH2 0xEE7 JUMP JUMPDEST SWAP2 POP PUSH2 0xCF6 DUP3 PUSH2 0x119A JUMP JUMPDEST PUSH1 0x20 DUP3 ADD SWAP1 POP SWAP2 SWAP1 POP JUMP JUMPDEST PUSH1 0x0 PUSH2 0xD0E PUSH1 0x13 DUP4 PUSH2 0xEE7 JUMP JUMPDEST SWAP2 POP PUSH2 0xD19 DUP3 PUSH2 0x11C3 JUMP JUMPDEST PUSH1 0x20 DUP3 ADD SWAP1 POP SWAP2 SWAP1 POP JUMP JUMPDEST PUSH1 0x0 PUSH2 0xD31 PUSH1 0x1C DUP4 PUSH2 0xEE7 JUMP JUMPDEST SWAP2 POP PUSH2 0xD3C DUP3 PUSH2 0x11EC JUMP JUMPDEST PUSH1 0x20 DUP3 ADD SWAP1 POP SWAP2 SWAP1 POP JUMP JUMPDEST PUSH2 0xD50 DUP2 PUSH2 0xF9E JUMP JUMPDEST DUP3 MSTORE POP POP JUMP JUMPDEST PUSH1 0x0 PUSH1 0x20 DUP3 ADD SWAP1 POP PUSH2 0xD6B PUSH1 0x0 DUP4 ADD DUP5 PUSH2 0xC41 JUMP JUMPDEST SWAP3 SWAP2 POP POP JUMP JUMPDEST PUSH1 0x0 PUSH1 0xA0 DUP3 ADD SWAP1 POP DUP2 DUP2 SUB PUSH1 0x0 DUP4 ADD MSTORE PUSH2 0xD8B DUP2 DUP9 PUSH2 0xC5F JUMP JUMPDEST SWAP1 POP PUSH2 0xD9A PUSH1 0x20 DUP4 ADD DUP8 PUSH2 0xC32 JUMP JUMPDEST PUSH2 0xDA7 PUSH1 0x40 DUP4 ADD DUP7 PUSH2 0xD47 JUMP JUMPDEST PUSH2 0xDB4 PUSH1 0x60 DUP4 ADD DUP6 PUSH2 0xC50 JUMP JUMPDEST PUSH2 0xDC1 PUSH1 0x80 DUP4 ADD DUP5 PUSH2 0xD47 JUMP JUMPDEST SWAP7 SWAP6 POP POP POP POP POP POP JUMP JUMPDEST PUSH1 0x0 PUSH1 0x20 DUP3 ADD SWAP1 POP DUP2 DUP2 SUB PUSH1 0x0 DUP4 ADD MSTORE PUSH2 0xDE4 DUP2 PUSH2 0xC98 JUMP JUMPDEST SWAP1 POP SWAP2 SWAP1 POP JUMP JUMPDEST PUSH1 0x0 PUSH1 0x20 DUP3 ADD SWAP1 POP DUP2 DUP2 SUB PUSH1 0x0 DUP4 ADD MSTORE PUSH2 0xE04 DUP2 PUSH2 0xCBB JUMP JUMPDEST SWAP1 POP SWAP2 SWAP1 POP JUMP JUMPDEST PUSH1 0x0 PUSH1 0x20 DUP3 ADD SWAP1 POP DUP2 DUP2 SUB PUSH1 0x0 DUP4 ADD MSTORE PUSH2 0xE24 DUP2 PUSH2 0xCDE JUMP JUMPDEST SWAP1 POP SWAP2 SWAP1 POP JUMP JUMPDEST PUSH1 0x0 PUSH1 0x20 DUP3 ADD SWAP1 POP DUP2 DUP2 SUB PUSH1 0x0 DUP4 ADD MSTORE PUSH2 0xE44 DUP2 PUSH2 0xD01 JUMP JUMPDEST SWAP1 POP SWAP2 SWAP1 POP JUMP JUMPDEST PUSH1 0x0 PUSH1 0x20 DUP3 ADD SWAP1 POP DUP2 DUP2 SUB PUSH1 0x0 DUP4 ADD MSTORE PUSH2 0xE64 DUP2 PUSH2 0xD24 JUMP JUMPDEST SWAP1 POP SWAP2 SWAP1 POP JUMP JUMPDEST PUSH1 0x0 PUSH1 0x20 DUP3 ADD SWAP1 POP PUSH2 0xE80 PUSH1 0x0 DUP4 ADD DUP5 PUSH2 0xD47 JUMP JUMPDEST SWAP3 SWAP2 POP POP JUMP JUMPDEST PUSH1 0x0 PUSH2 0xE90 PUSH2 0xEA1 JUMP JUMPDEST SWAP1 POP PUSH2 0xE9C DUP3 DUP3 PUSH2 0x101C JUMP JUMPDEST SWAP2 SWAP1 POP JUMP JUMPDEST PUSH1 0x0 PUSH1 0x40 MLOAD SWAP1 POP SWAP1 JUMP JUMPDEST PUSH1 0x0 PUSH8 0xFFFFFFFFFFFFFFFF DUP3 GT ISZERO PUSH2 0xEC6 JUMPI PUSH2 0xEC5 PUSH2 0x10F4 JUMP JUMPDEST JUMPDEST PUSH2 0xECF DUP3 PUSH2 0x1137 JUMP JUMPDEST SWAP1 POP PUSH1 0x20 DUP2 ADD SWAP1 POP SWAP2 SWAP1 POP JUMP JUMPDEST PUSH1 0x0 DUP2 MLOAD SWAP1 POP SWAP2 SWAP1 POP JUMP JUMPDEST PUSH1 0x0 DUP3 DUP3 MSTORE PUSH1 0x20 DUP3 ADD SWAP1 POP SWAP3 SWAP2 POP POP JUMP JUMPDEST PUSH1 0x0 PUSH2 0xF03 DUP3 PUSH2 0xF9E JUMP JUMPDEST SWAP2 POP PUSH2 0xF0E DUP4 PUSH2 0xF9E JUMP JUMPDEST SWAP3 POP DUP3 PUSH32 0xFFFFFFFFFFFFFFFFFFFFFFFFFFFFFFFFFFFFFFFFFFFFFFFFFFFFFFFFFFFFFFFF SUB DUP3 GT ISZERO PUSH2 0xF43 JUMPI PUSH2 0xF42 PUSH2 0x1096 JUMP JUMPDEST JUMPDEST DUP3 DUP3 ADD SWAP1 POP SWAP3 SWAP2 POP POP JUMP JUMPDEST PUSH1 0x0 PUSH2 0xF59 DUP3 PUSH2 0xF7E JUMP JUMPDEST SWAP1 POP SWAP2 SWAP1 POP JUMP JUMPDEST PUSH1 0x0 PUSH2 0xF6B DUP3 PUSH2 0xF7E JUMP JUMPDEST SWAP1 POP SWAP2 SWAP1 POP JUMP JUMPDEST PUSH1 0x0 DUP2 ISZERO ISZERO SWAP1 POP SWAP2 SWAP1 POP JUMP JUMPDEST PUSH1 0x0 PUSH20 0xFFFFFFFFFFFFFFFFFFFFFFFFFFFFFFFFFFFFFFFF DUP3 AND SWAP1 POP SWAP2 SWAP1 POP JUMP JUMPDEST PUSH1 0x0 DUP2 SWAP1 POP SWAP2 SWAP1 POP JUMP JUMPDEST DUP3 DUP2 DUP4 CALLDATACOPY PUSH1 0x0 DUP4 DUP4 ADD MSTORE POP POP POP JUMP JUMPDEST PUSH1 0x0 JUMPDEST DUP4 DUP2 LT ISZERO PUSH2 0xFD5 JUMPI DUP1 DUP3 ADD MLOAD DUP2 DUP5 ADD MSTORE PUSH1 0x20 DUP2 ADD SWAP1 POP PUSH2 0xFBA JUMP JUMPDEST DUP4 DUP2 GT ISZERO PUSH2 0xFE4 JUMPI PUSH1 0x0 DUP5 DUP5 ADD MSTORE JUMPDEST POP POP POP POP JUMP JUMPDEST PUSH1 0x0 PUSH1 0x2 DUP3 DIV SWAP1 POP PUSH1 0x1 DUP3 AND DUP1 PUSH2 0x1002 JUMPI PUSH1 0x7F DUP3 AND SWAP2 POP JUMPDEST PUSH1 0x20 DUP3 LT DUP2 EQ ISZERO PUSH2 0x1016 JUMPI PUSH2 0x1015 PUSH2 0x10C5 JUMP JUMPDEST JUMPDEST POP SWAP2 SWAP1 POP JUMP JUMPDEST PUSH2 0x1025 DUP3 PUSH2 0x1137 JUMP JUMPDEST DUP2 ADD DUP2 DUP2 LT PUSH8 0xFFFFFFFFFFFFFFFF DUP3 GT OR ISZERO PUSH2 0x1044 JUMPI PUSH2 0x1043 PUSH2 0x10F4 JUMP JUMPDEST JUMPDEST DUP1 PUSH1 0x40 MSTORE POP POP POP JUMP JUMPDEST PUSH1 0x0 PUSH2 0x1058 DUP3 PUSH2 0xF9E JUMP JUMPDEST SWAP2 POP PUSH32 0xFFFFFFFFFFFFFFFFFFFFFFFFFFFFFFFFFFFFFFFFFFFFFFFFFFFFFFFFFFFFFFFF DUP3 EQ ISZERO PUSH2 0x108B JUMPI PUSH2 0x108A PUSH2 0x1096 JUMP JUMPDEST JUMPDEST PUSH1 0x1 DUP3 ADD SWAP1 POP SWAP2 SWAP1 POP JUMP JUMPDEST PUSH32 0x4E487B7100000000000000000000000000000000000000000000000000000000 PUSH1 0x0 MSTORE PUSH1 0x11 PUSH1 0x4 MSTORE PUSH1 0x24 PUSH1 0x0 REVERT JUMPDEST PUSH32 0x4E487B7100000000000000000000000000000000000000000000000000000000 PUSH1 0x0 MSTORE PUSH1 0x22 PUSH1 0x4 MSTORE PUSH1 0x24 PUSH1 0x0 REVERT JUMPDEST PUSH32 0x4E487B7100000000000000000000000000000000000000000000000000000000 PUSH1 0x0 MSTORE PUSH1 0x41 PUSH1 0x4 MSTORE PUSH1 0x24 PUSH1 0x0 REVERT JUMPDEST PUSH1 0x0 DUP1 REVERT JUMPDEST PUSH1 0x0 DUP1 REVERT JUMPDEST PUSH1 0x0 DUP1 REVERT JUMPDEST PUSH1 0x0 DUP1 REVERT JUMPDEST PUSH1 0x0 PUSH1 0x1F NOT PUSH1 0x1F DUP4 ADD AND SWAP1 POP SWAP2 SWAP1 POP JUMP JUMPDEST PUSH32 0x6F6E7920636F6E74696275746572732063616E20766F74650000000000000000 PUSH1 0x0 DUP3 ADD MSTORE POP JUMP JUMPDEST PUSH32 0x796F75206861766520616C726561647920766F74656400000000000000000000 PUSH1 0x0 DUP3 ADD MSTORE POP JUMP JUMPDEST PUSH32 0x206F6E6C792061646D696E2063616E2063616C6C207468697300000000000000 PUSH1 0x0 DUP3 ADD MSTORE POP JUMP JUMPDEST PUSH32 0x646561646C696E65206861732070617373656400000000000000000000000000 PUSH1 0x0 DUP3 ADD MSTORE POP JUMP JUMPDEST PUSH32 0x6D696E696D756D20636F6E747269627574696F6E206E6F74206D657400000000 PUSH1 0x0 DUP3 ADD MSTORE POP JUMP JUMPDEST PUSH2 0x121E DUP2 PUSH2 0xF4E JUMP JUMPDEST DUP2 EQ PUSH2 0x1229 JUMPI PUSH1 0x0 DUP1 REVERT JUMPDEST POP JUMP JUMPDEST PUSH2 0x1235 DUP2 PUSH2 0xF60 JUMP JUMPDEST DUP2 EQ PUSH2 0x1240 JUMPI PUSH1 0x0 DUP1 REVERT JUMPDEST POP JUMP JUMPDEST PUSH2 0x124C DUP2 PUSH2 0xF9E JUMP JUMPDEST DUP2 EQ PUSH2 0x1257 JUMPI PUSH1 0x0 DUP1 REVERT JUMPDEST POP JUMP INVALID LOG2 PUSH5 0x6970667358 0x22 SLT KECCAK256 CODECOPY 0x4C 0xED PUSH13 0x6A2E1410C0AC3808744E5291EB EQ 0x49 PUSH32 0x5E8277D0A20DA1E301EC41B364736F6C63430008070033000000000000000000 "
		},
		"gasEstimates": {
			"creation": {
				"codeDepositCost": "950400",
				"executionCost": "infinite",
				"totalCost": "infinite"
			},
			"external": {
				"admin()": "2602",
				"contribute()": "infinite",
				"contributers(address)": "2837",
				"createRequest(string,address,uint256)": "infinite",
				"deadline()": "2497",
				"getBalance()": "363",
				"getRefund()": "infinite",
				"goal()": "2474",
				"minimumContribution()": "2452",
				"noOfContributors()": "2496",
				"numRequests()": "2474",
				"raisedAmount()": "2473",
				"requests(uint256)": "infinite",
				"vpteRequest(uint256)": "infinite"
			}
		},
		"methodIdentifiers": {
			"admin()": "f851a440",
			"contribute()": "d7bb99ba",
			"contributers(address)": "34b66460",
			"createRequest(string,address,uint256)": "1b16bb5c",
			"deadline()": "29dcb0cf",
			"getBalance()": "12065fe0",
			"getRefund()": "b2d5ae44",
			"goal()": "40193883",
			"minimumContribution()": "937e09b1",
			"noOfContributors()": "4e260f6f",
			"numRequests()": "9fb42b1f",
			"raisedAmount()": "c59ee1dc",
			"requests(uint256)": "81d12c58",
			"vpteRequest(uint256)": "a8ce452b"
		}
	},
	"abi": [
		{
			"inputs": [
				{
					"internalType": "uint256",
					"name": "_goal",
					"type": "uint256"
				},
				{
					"internalType": "uint256",
					"name": "_deadline",
					"type": "uint256"
				}
			],
			"stateMutability": "nonpayable",
			"type": "constructor"
		},
		{
			"inputs": [],
			"name": "admin",
			"outputs": [
				{
					"internalType": "address",
					"name": "",
					"type": "address"
				}
			],
			"stateMutability": "view",
			"type": "function"
		},
		{
			"inputs": [],
			"name": "contribute",
			"outputs": [],
			"stateMutability": "payable",
			"type": "function"
		},
		{
			"inputs": [
				{
					"internalType": "address",
					"name": "",
					"type": "address"
				}
			],
			"name": "contributers",
			"outputs": [
				{
					"internalType": "uint256",
					"name": "",
					"type": "uint256"
				}
			],
			"stateMutability": "view",
			"type": "function"
		},
		{
			"inputs": [
				{
					"internalType": "string",
					"name": "_description",
					"type": "string"
				},
				{
					"internalType": "address payable",
					"name": "_recipient",
					"type": "address"
				},
				{
					"internalType": "uint256",
					"name": "_value",
					"type": "uint256"
				}
			],
			"name": "createRequest",
			"outputs": [],
			"stateMutability": "nonpayable",
			"type": "function"
		},
		{
			"inputs": [],
			"name": "deadline",
			"outputs": [
				{
					"internalType": "uint256",
					"name": "",
					"type": "uint256"
				}
			],
			"stateMutability": "view",
			"type": "function"
		},
		{
			"inputs": [],
			"name": "getBalance",
			"outputs": [
				{
					"internalType": "uint256",
					"name": "",
					"type": "uint256"
				}
			],
			"stateMutability": "view",
			"type": "function"
		},
		{
			"inputs": [],
			"name": "getRefund",
			"outputs": [],
			"stateMutability": "nonpayable",
			"type": "function"
		},
		{
			"inputs": [],
			"name": "goal",
			"outputs": [
				{
					"internalType": "uint256",
					"name": "",
					"type": "uint256"
				}
			],
			"stateMutability": "view",
			"type": "function"
		},
		{
			"inputs": [],
			"name": "minimumContribution",
			"outputs": [
				{
					"internalType": "uint256",
					"name": "",
					"type": "uint256"
				}
			],
			"stateMutability": "view",
			"type": "function"
		},
		{
			"inputs": [],
			"name": "noOfContributors",
			"outputs": [
				{
					"internalType": "uint256",
					"name": "",
					"type": "uint256"
				}
			],
			"stateMutability": "view",
			"type": "function"
		},
		{
			"inputs": [],
			"name": "numRequests",
			"outputs": [
				{
					"internalType": "uint256",
					"name": "",
					"type": "uint256"
				}
			],
			"stateMutability": "view",
			"type": "function"
		},
		{
			"inputs": [],
			"name": "raisedAmount",
			"outputs": [
				{
					"internalType": "uint256",
					"name": "",
					"type": "uint256"
				}
			],
			"stateMutability": "view",
			"type": "function"
		},
		{
			"inputs": [
				{
					"internalType": "uint256",
					"name": "",
					"type": "uint256"
				}
			],
			"name": "requests",
			"outputs": [
				{
					"internalType": "string",
					"name": "description",
					"type": "string"
				},
				{
					"internalType": "address payable",
					"name": "recipient",
					"type": "address"
				},
				{
					"internalType": "uint256",
					"name": "value",
					"type": "uint256"
				},
				{
					"internalType": "bool",
					"name": "completed",
					"type": "bool"
				},
				{
					"internalType": "uint256",
					"name": "noOfVoters",
					"type": "uint256"
				}
			],
			"stateMutability": "view",
			"type": "function"
		},
		{
			"inputs": [
				{
					"internalType": "uint256",
					"name": "_requestNo",
					"type": "uint256"
				}
			],
			"name": "vpteRequest",
			"outputs": [],
			"stateMutability": "nonpayable",
			"type": "function"
		},
		{
			"stateMutability": "payable",
			"type": "receive"
		}
	]
}